:020000040800F2
:10000000680500209D010008FB1900081919000867
:10001000F9190008F50300082B1C00080000000077
:100020000000000000000000000000001F1A00088F
:100030006D040008000000001D1A0008211A0008C5
:10004000B7010008B7010008B7010008B7010008B0
:10005000B7010008B7010008B7010008B7010008A0
:10006000B7010008B7010008B7010008B701000890
:10007000B7010008B7010008B7010008B701000880
:10008000B7010008B7010008A9020008B70100087D
:10009000F9030008B7010008B7010008B70100081C
:1000A000B7010008B7010008B7010008B701000850
:1000B000B7010008B7010008B7010008B701000840
:1000C000B7010008B7010008B7010008B701000830
:1000D000B7010008B7010008B7010008B701000820
:1000E000B7010008B7010008B7010008B701000810
:1000F000B7010008B7010008B7010008B701000800
:10010000B7010008B7010008B7010008B7010008EF
:10011000B7010008B7010008B7010008B7010008DF
:10012000B7010008B7010008B7010008B7010008CF
:10013000B7010008B7010008B7010008B7010008BF
:10014000B7010008B7010008B7010008B7010008AF
:10015000B7010008B7010008B7010008B70100089F
:10016000B7010008B7010008B7010008B70100088F
:10017000B7010008B7010008B7010008000000003F
:10018000B7010008B7010008DFF80CD000F07AF8DA
:10019000004800474D1C00086805002006488047BD
:1001A00006480047FEE7FEE7FEE7FEE7FEE7FEE75C
:1001B000FEE7FEE7FEE7FEE7AD1A0008890100084A
:1001C0002DE9F05F0546002092469B46884606468C
:1001D000814640241BE0284641464746224600F01F
:1001E00041F853465A46C01A914110D31146184659
:1001F000224600F028F82D1A67EB01084F462246E8
:100200000120002100F01FF817EB00094E41201ECD
:10021000A4F10104DFDC484631462A464346BDE8E6
:10022000F09FD2B201E000F8012B491EFBD27047CB
:100230000022F6E710B513460A4604461946FFF7B2
:10024000F0FF204610BD202A04DB203A00FA02F11C
:10025000002070479140C2F1200320FA03F31943B4
:1002600090407047202A04DB203A21FA02F0002156
:10027000704721FA02F3D040C2F1200291400843B6
:1002800019467047064C074D06E0E06840F0010350
:1002900094E8070098471034AC42F6D3FFF778FF94
:1002A000EC1F00080C20000810B5074800F08BF97F
:1002B000054800F085F90549C0B20870BDE8104056
:1002C0004FF4047100F0C4B838000020250000206D
:1002D000454910B54A6822F440324A604A6843688A
:1002E0001A434A6001684A6822F480724A600168D1
:1002F0004A68036942EA03224A6001684A6822F0B8
:1003000040724A6001684A6883681A434A6001681B
:100310008A6822F400628A6001688A68C3681A43A6
:100320008A60816A6FF07062D14201688A6822F047
:1003300070628A6001688A680CD0836A1A438A6096
:1003400001688A6822F040528A6001688A68C36A3C
:100350001A4301E022F040528A6001688A6822F064
:1003600002028A6001688A68836942EA43028A60FD
:10037000016A002901684A680FD042F400624A60AD
:1003800001684A6822F460424A6001684A68174C72
:10039000436A04EB43331A4301E022F400624A60EB
:1003A0000168CA6A22F47002CA620168CA6A838B51
:1003B0000F4C04EB03531A43CA6201688A6822F4A3
:1003C00000728A6001688A68036B42EA43228A608D
:1003D00001688A6822F480628A6001688A684069DC
:1003E00042EA8020886010BD0023014000E0FFFF4A
:1003F0000000F0FFFEE7000010B50F4800F0C4FB5E
:100400000E4B0F4A00210C4800F041FB0C480068DD
:10041000B0F5807F0FD109480A4902780120E02A0F
:1004200008D0E12A06D0FD2A03D0FF2A03D10649CD
:1004300000E00649087010BD800000202400002064
:100440004C0100201C0000200000002001000020C2
:1004500013B50448044B6A4601600146643800F055
:100460002BFA1CBDE40000202000002070477047DC
:1004700078B50024009490F83C20012A19D001227C
:1004800080F83C200A6807230568092A13D9EE681A
:100490000A3A02EB420293409E43EE600B788A6870
:1004A0000A3B03EB43039A400368DD682A43DA60A2
:1004B00010E0022078BD2E6902EB420293409E4379
:1004C0002E610B788A6803EB43039A4003681D6929
:1004D0002A431A614A681F23072A13D205686E6BE4
:1004E000521E02EB820293409E436E630B790A8890
:1004F0005B1E92B203EB83039A4003685D6B2A4351
:100500005A6327E005680D2A12D22E6BD21F02EB28
:10051000820293409E432E630B790A88DB1F92B2BE
:1005200003EB83039A4003681D6B2A431A6311E0AF
:10053000EE6A0D3A02EB820293409E43EE620B7923
:100540000A880D3B92B203EB83039A400368DD6A8D
:100550002A43DA62164B0568144A9D4206D10D689B
:10056000122D03D1556845F48005556005689D42FC
:1005700018D10B68102B01D0112B13D1536843F401
:1005800000035360096810290CD10A490A4A096816
:10059000B1FBF2F101EB8101490000E0491E00913D
:1005A0000029FBD180F83C40002078BD00230140A9
:1005B000002001403400002040420F007047704787
:1005C0000068C06C704770B50446006801684268F6
:1005D000C1F34001C2F3401251B34AB3216CC906C2
:1005E00003D4216C41F400712164816811F0405FF3
:1005F00017D1A169A9B9C16A11F4700F02D081683D
:1006000049050ED4416821F020014160206C20F49E
:1006100080702064206CC00403D4206C40F0010082
:1006200020642046FFF7CAFF21686FF012000860BF
:10063000206801684268C1F38001C2F3C01289B327
:1006400082B3216CC90603D4216C41F400512164AA
:10065000816811F4401F1ED1816B11F4401F02D03C
:100660008168490517D44168490514D4816811F09F
:10067000405F10D1A16971B9416821F080014160EA
:10068000206C20F480502064206CC00503D4206CC2
:1006900040F0010020642046FFF7E9FE21686FF07A
:1006A0000C00086020680168426811F0010FC2F375
:1006B00080120ED06AB10068C0070AD0206C40F4E6
:1006C00080302064204600F046F821686FF0010079
:1006D0000860206801684268C1F34011C2F380627B
:1006E00000290DD0002A0BD0616C41F00201616439
:1006F0006FF0200505602046FFF761FF2068056068
:1007000070BD70B504004FF0000503D0206C0026CA
:1007100010B107E0012070BD666484F83C6020469B
:1007200000F01AF8206CC00610D4206C20F4885019
:1007300040F0020020642046FFF7CAFD6664206C8A
:1007400020F0020040F00100206400E0012584F860
:100750003C60284670BD704710B586B00446142131
:100760006846FFF765FD15492068884224D1144882
:100770000021026842F480720260006800F4807018
:1007800005900F481438026842F0040202600068C5
:1007900000F004000590012000900320CDE9010144
:1007A0006946084800F0F4FB00221146122000F0D0
:1007B00039FD122000F02AFD06B010BD00200140D6
:1007C000443802400008024018B50021009190F81A
:1007D0003C20012A07D0012280F83C20026893685F
:1007E000DB0702D011E0022018BD936843F001033B
:1007F0009360224A224B1268B2FBF3F202EB4202F0
:1008000000E0521E0092002AFBD102689368DB07C9
:1008100032D0036C40F20164A34343F48073036459
:1008200053685B0505D5036C23F4005343F48053F0
:100830000364036CDB0404D5436C23F006034364B8
:1008400000E0416480F83C100E4B6FF02201116013
:1008500001684A680C4C22434A6059680068C9061E
:1008600002D00A49884207D1816811F0405F03D164
:10087000816841F080418160002018BD3400002073
:1008800040420F00002301402000000400200140EE
:1008900090F82020012A09D090F82020022A05D0C3
:1008A000416A41F480214162012070470068426939
:1008B0000A43426100207047F0B590F82040012CB7
:1008C00007D090F82040022C03D0416A41F48021E7
:1008D00053E00468A5686D0105D4A5682D0102D414
:1008E000A568ED0046D5A4680125C4F30164A540C0
:1008F0001D608D684FF4C0739DB1CE6835434E685E
:1009000045EAC605066803EB0417F5514FF4C275B6
:10091000076805EB04150E697E51097D012905D094
:1009200009E00E88CD6845EA4655EBE701684E5967
:1009300046F480764E511179D2F805504FF4C676C0
:1009400041EA0521056806EB0416A9511178D2F891
:1009500001204FF4C47541EA0221026805EB041539
:100960005151006803EB0411425842F00102425019
:100970000020F0BD416A41F4001141620120F0BD48
:1009800010B590F82020012A09D090F82020022AE2
:1009900005D0416A41F480214162012010BD3A48EE
:1009A000D0F8002242F00102C0F80022D0F8002264
:1009B00022F47C52C0F80022D0F800224B6A42EAAE
:1009C0000322C0F800220B7D01229A40D0F81C328D
:1009D0009343C0F81C32CB69B3B9D0F80C329343BF
:1009E000C0F80C328C894B6864F31F434C6900EBF0
:1009F000C404C4F840320C890B6864F31F434C698B
:100A000000EBC404C4F84432CB69012B16D1D0F8F2
:100A10000C321343C0F80C320C884B6864F31F434C
:100A20004C6900EBC404C4F840320C89CB6864F311
:100A30001F434C6900EBC404C4F844328B69002B9B
:100A4000D0F804320ED01343C0F804320B69002BE7
:100A5000D0F8143208D01343C0F81432096A0129BF
:100A600004D008E09343EFE79343F5E7D0F81C1276
:100A70001143C0F81C12D0F8001221F00101C0F897
:100A80000012002010BD000000640040704730B527
:100A900090F82040012C07D090F82040022C03D081
:100AA000416A41F4802109E011B1012909D00CE02B
:100AB0000468E46807E0416A41F4001141620120E2
:100AC00030BD04682469A407F5D04FF4D8740568D4
:100AD00004EB01142D5915F00405956005682D5996
:100AE00042D0ED08556005682C59C4F34004D46029
:100AF0004FF4DA74056804EB01142D5905F00F0565
:100B0000156105682D59C5F30725956105682C59B0
:100B1000240C54614FF4DC72046802EB0112A458F7
:100B20001C700468A458240A5C700468A458240C3F
:100B30009C700468A258120EDA704FF4DE720468DA
:100B400002EB0112A4581C710468A458240A5C71B9
:100B50000468A458240C9C710468A258120EDA711F
:100B600029B1012909D00DE06D0D1560BBE70068C2
:100B7000C16841F02001C16004E00068016941F0F2
:100B800020010161002030BD2DE9F05F05460068BD
:100B900000244669D0F804908768D0F80CB0D0F8EB
:100BA00010A0D0F81880F10748D0F90714D001211F
:100BB0008160B80703D5284600F0E3F90CE0780718
:100BC00002D54FF4006407E0380702D54FF4805493
:100BD00002E0284600F0D4F9F80516D529684FF44C
:100BE00080708860B80503D5284600F0CCF90CE089
:100BF000780502D544F4005407E0380502D544F4E2
:100C0000804402E0284600F0BDF9F80316D52968B3
:100C10004FF480308860B80303D5284600F0B5F95A
:100C20000CE0780302D544F4004407E0380302D511
:100C300044F4803402E0284600F0A6F9300707D5D6
:100C40005FEACB6004D52968102044F40074C860C2
:100C500070074FF0080707D55FEA0B7004D52868C6
:100C6000C760284600F05AF9B00706D52868C06862
:100C7000800702D0284600F052F9700607D55FEAD7
:100C8000CA6004D52968102044F480640861B00665
:100C900007D55FEA0A7004D528680761284600F086
:100CA0003FF9F00606D528680069800702D028467B
:100CB00000F037F9B00308D55FEAC96005D52968A7
:100CC00010204860284600F02DF9F00307D55FEAB0
:100CD000097004D528684760284600F057F93004A9
:100CE00046D55FEA497040D5F00504D55FEAC87083
:100CF00001D044F00104B00504D55FEA887001D545
:100D000044F00204700504D55FEA487001D544F050
:100D10000404300529D518F0700F26D008F07000B3
:100D2000402815D006DC102809D020280AD0302809
:100D300016D10AE050280ED0602811D10EE044F000
:100D400008040DE044F010040AE044F0200407E039
:100D500044F0400404E044F0800401E044F4807472
:100D60002868816921F07001816129680420486048
:100D7000002C05D0686A204368622846FFF786FE8B
:100D8000BDE8F09F70B5040003D094F8200010B1C6
:100D900004E0012070BD204600F082F82068016860
:100DA00021F00201016000F0D1F90546052604E0BA
:100DB00000F0CCF9401B0A2811D820684068800751
:100DC000F6D42068016841F00101016000F0BEF92D
:100DD00005460BE000F0BAF9401B0A2806D9606A04
:100DE00040F40030606284F82060D2E720684068F8
:100DF000C007EFD0207E0128206801683DD021F097
:100E000080010160607E01282068016838D021F0EF
:100E100040010160A07E01282068016833D021F0E4
:100E200020010160E07E0128206801682ED041F099
:100E300010010160207F01282068016829D021F07D
:100E400008010160607F01282068016824D021F03A
:100E500004010160D4E902010843D4E904121143FA
:100E600008436168491E08432168C8610020606228
:100E7000012084F82000002070BD41F08001C0E70F
:100E800041F04001C5E741F02001CAE721F010011F
:100E9000CFE741F00801D4E741F00401D9E70000B1
:100EA00010B586B0044614216846FFF7C1F9184909
:100EB0002068884229D117480021026842F0007258
:100EC0000260006800F00070059012481038026857
:100ED00042F002020260006800F0020005904FF448
:100EE000407000900220CDE9010103200390092009
:100EF00004906946084800F04BF8002201211420B4
:100F000000F090F9142000F081F906B010BD000047
:100F100000640040403802400004024070477047BF
:100F2000704770477047000070B5044690F8200085
:100F3000012804D0606A40F40020606218E00220BA
:100F400084F820002068016821F00101016000F0B0
:100F5000FDF805460EE000BF00F0F8F8401B0A2837
:100F600008D9606A40F400306062052084F82000EF
:100F7000012070BD20684068C007EDD1606270BD7F
:100F80007047704770477047704770477047000060
:100F90002DE9F84FDFF87CB100224FF001084FF047
:100FA000030A4FF00F090BF1040E00BF0B6808FA9B
:100FB00002F42340A3426ED14D68022D01D0122DC0
:100FC0000ED1D50800EB850CDCF820505607F70E43
:100FD00009FA07F6B5430E69BE402E43CCF82060EF
:100FE000066855000F790AFA05FC07F0030726EAA0
:100FF0000C06AF40374307604E68012E05D0022E25
:1010000003D0112E01D0122E0ED18668CF6826EAA9
:101010000C06AF40374387604668A6430C79C4F39B
:101020000014944034434460C6688C6826EA0C0679
:10103000AC403443C4604C68E40065D5364C256848
:1010400045F480452560246822F0030504F48044BB
:101050000094324C2E19D6F8084895072F0F09FA3C
:1010600007F5AC432E4DA84201D1002524E02D4DBB
:10107000A84201D101251FE02B4DA84201D1022534
:101080001AE02A4DA84201D1032515E0284DA842B7
:1010900002D1042510E037E0264DA84201D10525F4
:1010A0000AE0254DA84201D1062505E0234DA842BE
:1010B00001D1072500E00825BD402543C6F80858A2
:1010C000DBF800405D464E689C43F60300D51C43A8
:1010D0002C60DEF8004075464E689C43B60300D590
:1010E0001C432C600B4D08352C684E689C43F6025F
:1010F00000D51C432C60074D0C352C684E689C4372
:10110000B60200D51C432C60521C102AFFF44EAFCF
:10111000BDE8F88F003C01404438024000300140F7
:10112000000002400004024000080240000C02409F
:10113000001002400014024000180240001C02404F
:101140000069084000D00120704700000148806815
:10115000704700002800002002488168027811448E
:1011600081607047280000200B4810B5016841F4E9
:1011700000710160016841F480610160016841F41F
:1011800080710160032000F06DF8002000F006F887
:1011900000F024F8002010BD003C024070B50D4D59
:1011A00004464FF47A712878B1FBF0F00A490968D7
:1011B000B1FBF0F000F0C0FA48B9102C07D20022C1
:1011C0002146501E00F02EF800206C6070BD0120FA
:1011D00070BD000028000020340000200A4808B537
:1011E000016841F480410160006800F48040009093
:1011F0000548001F016841F080510160006800F05F
:101200008050009008BD00004438024000F01F02EA
:10121000012191404009800000F1E020C0F8001158
:1012200070470000F0B40E4B1B680C46C3F302235A
:10123000C3F10705042D00D90425191D072901D282
:10124000002300E0DB1E012606FA05F1491E2140BD
:1012500099409E40761E16403143F0BC00F0CEBB54
:101260000CED00E0064900F0070208684FF6FF03A6
:10127000184040EA0220034A10430860704700000B
:101280000CED00E00000FA052DE9F0470E460500E0
:1012900065D0DFF81481D8F80000F7B200F00F0035
:1012A000B04207D288F80070D8F8000000F00F00B4
:1012B000B04254D128683D4C810712D5400703D570
:1012C000206840F4E05020602878000703D52068AB
:1012D00040F4604020602068A96820F0F0000843D6
:1012E00020602878C0072DD0304968680839012867
:1012F00012D0022813D0032811D0096889070029C9
:101300002DDA216821F0030101432160FFF71EFF60
:10131000814641F2883A0EE009688903EFE70968DF
:101320008901ECE7FFF712FFA0EB0901514502D953
:101330000320BDE8F0872068696800F00C00B0EB7E
:10134000810FEFD1D8F80010404601F00F01B142F3
:1013500007D90770006800F00F00B04201D00120EB
:10136000E7E72878400705D52068E96820F4E050D1
:10137000084320602878000706D52068296920F4F2
:10138000604040EAC100206000F016F82168084A79
:10139000C1F30311515CC840064908600020FFF703
:1013A000FDFE0020C5E70000003C02400838024076
:1013B000DA1F000834000020154810B5006810F04E
:1013C0000C02144813D01449042A0FD0082A0ED155
:1013D0000F4C241F2268236802F03F025B0207D5EE
:1013E0002068C0F38810A0FB010106E0084610BD8C
:1013F0002168C1F38811A1FB00010023FEF7E0FE84
:101400002168C1F30141491C4900B0FBF1F010BD56
:10141000083802400024F40040787D012DE9F84F9F
:10142000050076D02878DFF8F8B2BE4CC00749D066
:10143000DBF800105846C1F38101012908D000688B
:10144000C0F3810002280AD1201D0068400206D5A1
:101450002068800336D568680028E2D032E06868EA
:10146000B0F5803F10D0B0F5A02F206810D020F448
:1014700080302060206820F4802020606868A0B15F
:10148000FFF764FE06460CE0206840F48030F4E785
:1014900040F480202060F7E7FFF758FE801B6428A7
:1014A00073D820688003F7D50CE0FFF74FFE06469F
:1014B00005E000BFFFF74AFE801B6428F0D82068D3
:1014C0008003F7D42878DFF8608280074FF00009A6
:1014D0003ED5DBF80010584611F00C0F09D000681B
:1014E000C0F3810002280BD18D48001F0068400224
:1014F00006D42068800715D5E868012809D111E0D5
:10150000E868B8B10120C8F80000FFF71FFE0646E2
:1015100005E002E1FFF71AFE801B0228C0D8206810
:101520008007F7D52068296920F0F80040EAC1005B
:1015300020600DE0C8F80090FFF708FE064604E0C2
:10154000FFF704FE801B02281FD820688007F7D40D
:101550002878000722D5724E744869696C3671B1DB
:1015600001210160FFF7F2FD074604E0FFF7EEFD01
:10157000C01B022809D830688007F7D50EE0C0F8F4
:101580000090FFF7E3FD074605E083E0FFF7DEFD8F
:10159000C01B02287ED830688007F7D4287840071F
:1015A00068D5DFF87CA100270AF1380ADAF80000D4
:1015B000C0000BD4DAF8001041F08051CAF80010D6
:1015C000DAF80000012700F080500090584E306893
:1015D000C00510D4306840F480703060FFF7B6FD6D
:1015E000009005E0FFF7B2FD0099401A022851D89B
:1015F0003068C005F6D54A4EA868683601280FD075
:101600000528306810D020F001003060306820F0EC
:1016100004003060A868B8B1FFF798FD00900FE0B3
:10162000306840F00100F4E740F004003060F7E774
:10163000FFF78CFD0099411A41F28830814264D84D
:1016400030688007F4D50EE0FFF780FD009007E0DA
:10165000FFF77CFD0099411A41F28830814254D84D
:1016600030688007F4D42FB1DAF8001021F08051EF
:10167000CAF80010A869C0B3DBF80010C1F38101FB
:1016800002294AD00228484607D0C8F86000FFF770
:101690005DFD00E039E005463AE04746C8F86000E5
:1016A000FFF754FD064604E0FFF750FD801B0228BB
:1016B0002BD820688001F7D4D5E907010843A96A2F
:1016C0001C4A490802EB01416A6A41EA8211084357
:1016D00095F82C1040EA01611148001F01600120BB
:1016E0003866FFF733FD054605E014E0FFF72EFDF1
:1016F000401B022809D820688001F7D50BE000BF05
:10170000FFF724FD401B022802D90320BDE8F88F13
:1017100020688001F4D40020F8E70120F6E70000FB
:10172000083802400038024000004742800E47421D
:10173000007000400000FFFF10B5401EB0F1807F38
:1017400001D3012010BD4FF0E02460610F2160172C
:1017500000F054F90020A06107202061002010BD96
:1017600030B590F83820012A20D0012280F83820A6
:10177000022380F8393003685C6824F070045C60F0
:1017800003685C680D682C435C6003689C6824F007
:1017900080049C6003689C6849680C439C6080F8E6
:1017A0003920002180F83810084630BD022030BDB5
:1017B00010B5040003D094F8390010B107E00120FF
:1017C00010BD002084F83800204600F00DF80220FB
:1017D00084F83900211D206800F092F9012084F876
:1017E0003900002010BD000008B50068B0F1804F3E
:1017F00008D10548016841F001010160006800F06E
:101800000100009008BD000040380240022180F82D
:10181000391001680A6842F001020A60012180F86B
:1018200039100020704770B5044690F83800012840
:1018300017D0012584F83850022084F83900206838
:10184000826822F0770222F47F4282600868502882
:1018500037D00DDC202859D005DC88B3102841D1C1
:1018600051E0022070BD302853D040283AD13FE0EB
:1018700060282ED070280BD0B0F5805F03D0B0F573
:10188000005F2FD110E02068816821F0070115E08A
:10189000CB68D1E90121206800F092F921688868BD
:1018A00040F0770088601DE0CB68D1E90121206815
:1018B00000F086F92068816841F48041816011E080
:1018C0001EE0CA684968206800F08CF95021206841
:1018D00006E0CA684968206800F095F96021206830
:1018E00000F078F984F83950002084F8380070BD91
:1018F000CA684968206800F075F940212068EFE760
:1019000000212068ECE710212068E9E72021206809
:10191000E6E730212068E3E7FEE700001FB500217D
:101920001348009101910291104A039102604FF413
:101930008032426001615202816182600162D200A4
:10194000C2620124C160C4614FF0C062446182621E
:101950000163FEF7D6FE0A20CDE9000402200290C2
:1019600069460348FEF784FD1FBD000000200140CA
:10197000380000200B480A494FF480220160022100
:10198000416000218160C0E903129200426101764A
:1019900041768176C17601774177FFF7F3B9000090
:1019A000006400408000002010B586B0002411487B
:1019B000009401940294039404944FF080410594A0
:1019C00001601421C0E9011442F21071C0E903144E
:1019D000FFF7EEFE4FF48050009069460548FFF790
:1019E00022FF2020CDE9040404A90248FFF7B8FE35
:1019F00006B010BDA8000020FEE770470907090ED9
:101A0000002806DA00F00F0000F1E02080F8141D35
:101A1000704700F1E02080F800147047704770476D
:101A2000FFF79ABB10B592B030216846FEF700FC74
:101A300014210CA8FEF7FCFB1A480021026842F0B2
:101A400080520260006800F08050119016480268D1
:101A500042F4804202600068022400F48040119049
:101A60000120039010200490009406940820CDE9F2
:101A700007104020CDE9090404200B906846FFF7C9
:101A8000CDFC0F20CDE90C0490200E904FF4A05017
:101A90000F90E002109000210CA8FFF7F5FB12B0A8
:101AA00010BD00004038024000700040104801683E
:101AB00041F4700101600F48016841F001010160CB
:101AC0000C4A00210832116002680B4B1A40026078
:101AD000031D0A4A1A60026822F480220260054847
:101AE0000C300160024958068039086070470000D8
:101AF00088ED00E000380240FFFFF6FE10300024C1
:101B0000F0B50268234B244D244E254F254C4FF051
:101B1000804C984209D0604507D0A84205D0B04219
:101B200003D0B84201D0A04204D122F0700E4A681E
:101B300042EA0E0298421BD0604519D0A84217D045
:101B4000B04215D0B84213D0A04211D0164DA842D1
:101B50000ED0164DA8420BD0154DA84208D0154DF9
:101B6000A84205D0144DA84202D0144DA84203D17A
:101B700022F44075CA682A4302608A68C2620A6811
:101B80008262984201D0A04201D10969016301211A
:101B90004161F0BD00000140000400400008004029
:101BA000000C00400004014000400140004401409E
:101BB0000048014000180040001C00400020004088
:101BC00010B5846842EA032224F47F440A43224386
:101BD000826010BD826822F070020A4342F0070161
:101BE0008160704710B5036A046A24F0010404623E
:101BF000846924F0F00444EA021423F00A020A4340
:101C00008461026210BD10B5036A23F01003036201
:101C10008369046A23F4704343EA023224F0A00388
:101C200043EA01118261016210BDFEE702E008C8CB
:101C3000121F08C1002AFAD170477047002001E046
:101C400001C1121F002AFBD17047000008B5FFF741
:101C50008BFAFFF7E7FED54C0026206840F08000A5
:101C60002060206800F080000090206840F00400B0
:101C70002060206800F004000090206840F002001E
:101C80002060206800F002000090FFF773FEFFF76D
:101C90008BFEFFF743FE206840F0080020602068BC
:101CA00000F008000090206840F0100020602068DC
:101CB000BF4900F0100000906FF02A400860BD4D51
:101CC00080052860BC48E860BC4801246703866042
:101CD000C0E90364183001468461C0E90464C4614A
:101CE0000462C0E900767C38FEF74AFEB348022160
:101CF00040300661C0E905164FF47751C0E900167F
:101D00004FF4FF518160C4610462C1600146A43890
:101D1000FEF736FEA9486438FFF706F9A748022106
:101D20006438FEF7B5FDDFF88882A54C4FF4806A71
:101D30004FF4107B4FF6FF7908F11408A069001FDB
:101D40000728FBD2DFE800F0050E468E0404FE00F3
:101D5000F4E79A483C38FFF759FD9848AC38FEF74D
:101D600033FD34E001212846FFF7EAF900B10120F4
:101D7000A07302212846FFF7E3F900B10120607447
:101D800010212846FFF7DCF900B101202074402122
:101D90002846FFF7D5F900B10120E07380212846DD
:101DA000FFF7CEF900B10120A07451462846FFF795
:101DB000C7F900B10120E0744FF400712846FFF725
:101DC000BFF900B101202075642000F0FBF8A06984
:101DD000401CC4E001212846FFF7B2F90146A07B70
:101DE000814200D1207004212846FFF7A9F901465D
:101DF000607C814200D1E07010212846FFF7A0F9F5
:101E00000146207C814200D1A07040212846FFF786
:101E100097F90146E07B814200D16070802128461D
:101E2000FFF78EF90146A07C814200D12071514616
:101E30002846FFF785F9E17C884200D161714FF4B3
:101E400080712846FFF77CF9E17C884200D16171FE
:101E50004FF400712846FFF773F9217D8842B6D10F
:101E6000A171B4E7E279207882F00101814200D1CA
:101E700012B1814201D102B1E071A07AE27880F022
:101E80000101914200D1D8B3914207D130B14FF452
:101E900000711720FEF7DCFAE078A072617AA07872
:101EA00081F00102824200D159B3824209D141B18D
:101EB0004FF400711920FEF7CBFAC8F80060A07843
:101EC0006072207A627880F00101914200D1D0B333
:101ED000914207D130B159465FF00500FEF7B8FADC
:101EE00060782072E17A207981F00102824200D18B
:101EF00051B382420AD149B14FF40071152001E07B
:101F00002FE032E0FEF7A4FA2079E072207B6279BC
:101F100080F00101914200D188B3914209D140B1D2
:101F20004FF400711320FEF793FAC8F8006060794F
:101F30002073607BA17980F001028A4200D170B3E6
:101F40008A4202E02EE01BE01DE007D130B14FF4E1
:101F50004071F120FEF77CFAA07960730520A06142
:101F6000ECE64FF40071162094E74FF4007118204E
:101F7000FEF76EFAA0786072C8F80090A1E706E05C
:101F800059460620AAE74FF400711420B7E74FF432
:101F900000711220FEF75CFAC8F80090C7E7FFE76F
:101FA0006173DBE7024818300760C7E6303802404B
:101FB000000C024000100240AA5AAAAAE400002025
:101FC0000400002000EB40020021C2EBC01000E042
:101FD000491CB1EB401FFBD370470000000000001C
:101FE0000000010203040607080900000C20000895
:101FF00000000020380000002C1C000844200008CD
:1020000038000020300500003C1C000800000000E3
:1020100000000000000000000000000000000000C0
:1020200000000000000000000400000000000000AC
:10203000000000000100000010000000000000008F
:042040000024F40084
:040000050800018965
:00000001FF
