:020000040800F2
:10000000880500209D0100088F160008AD15000826
:100010008D160008A9020008E7190008000000007A
:10002000000000000000000000000000931600081F
:10003000AD030008000000009116000895160008A6
:10004000B7010008B7010008B7010008B7010008B0
:10005000B7010008B7010008B7010008B7010008A0
:10006000B7010008B7010008B7010008B701000890
:10007000B7010008B7010008B7010008B701000880
:10008000B7010008B7010008B7010008B701000870
:10009000AD020008B7010008B7010008B701000869
:1000A000B7010008B7010008B7010008B701000850
:1000B000B701000875170008E5170008B701000828
:1000C000B7010008B7010008B7010008B701000830
:1000D000B7010008B7010008B7010008B701000820
:1000E000B7010008B7010008B7010008B701000810
:1000F000B7010008B7010008B7010008B701000800
:10010000B7010008B7010008B7010008B7010008EF
:10011000B7010008B7010008B7010008B7010008DF
:10012000B7010008B7010008B7010008B7010008CF
:10013000B7010008B7010008B7010008B7010008BF
:10014000B7010008B7010008B7010008B7010008AF
:10015000B7010008B7010008B7010008B70100089F
:10016000B7010008B7010008B7010008B70100088F
:10017000B7010008B7010008B7010008000000003F
:10018000B7010008B7010008DFF80CD000F07AF8DA
:1001900000480047B91A0008880500200648804733
:1001A00006480047FEE7FEE7FEE7FEE7FEE7FEE75C
:1001B000FEE7FEE7FEE7FEE72117000889010008D9
:1001C0002DE9F05F0546002092469B46884606468C
:1001D000814640241BE0284641464746224600F01F
:1001E00041F853465A46C01A914110D31146184659
:1001F000224600F028F82D1A67EB01084F462246E8
:100200000120002100F01FF817EB00094E41201ECD
:10021000A4F10104DFDC484631462A464346BDE8E6
:10022000F09FD2B201E000F8012B491EFBD27047CB
:100230000022F6E710B513460A4604461946FFF7B2
:10024000F0FF204610BD202A04DB203A00FA02F11C
:10025000002070479140C2F1200320FA03F31943B4
:1002600090407047202A04DB203A21FA02F0002156
:10027000704721FA02F3D040C2F1200291400843B6
:1002800019467047064C074D06E0E06840F0010350
:1002900094E8070098471034AC42F6D3FFF778FF94
:1002A000E01D0008001E0008FEE7000010B53348FE
:1002B00000F08BF9324B334A0021304800F011F93D
:1002C00030483149314C00682D4BB0F5107F0BD0D0
:1002D000B0F5407F36D0A0F54070EE3803D1042051
:1002E00020600003086010BD1A780120052A1ED086
:1002F00008DC012A0DD0022A13D0032A13D0042AC5
:1003000020D112E0062A14D0072A15D0FE2A19D1CE
:1003100016E01F4908701C48001F0168C9430160AE
:1003200010E01C4906E01C4904E01C4902E01C499D
:1003300000E01C49087005E04FF40040086001E04F
:100340000020206019781848202911D007DC1029D6
:100350000BD01129C7D14FF08061016010BD212958
:1003600009D0F129FAD11021F7E74FF48061F4E7C1
:100370004FF40061F1E74FF00061EEE73400002038
:10038000180000206C010020180C02401000002012
:1003900005000020060000200300002004000020CB
:1003A000070000200800002018080240704790F85D
:1003B0002020012A07D0022A05D0416A41F4802179
:1003C000416201207047006842690A43426100208F
:1003D0007047000010B590F82020012A07D0022AAB
:1003E00005D0416A41F480214162012010BD3B48A3
:1003F000D0F8002242F00102C0F80022D0F800221A
:1004000022F47C52C0F80022D0F800224B6A42EA63
:100410000322C0F800220A7D02F01F0301229A4045
:10042000D0F81C329343C0F81C32CB69B3B9D0F872
:100430000C329343C0F80C328C894B6864F31F4331
:100440004C6900EBC404C4F840320C890B6864F3B7
:100450001F434C6900EBC404C4F84432CB69012B40
:1004600016D1D0F80C321343C0F80C320C884B680C
:1004700064F31F434C6900EBC404C4F840320C8998
:10048000CB6864F31F434C6900EBC404C4F84432E6
:100490008B69002BD0F804320ED01343C0F804321D
:1004A0000B69002BD0F8143208D01343C0F8143273
:1004B000096A012904D008E09343EFE79343F5E785
:1004C000D0F81C121143C0F81C12D0F8001221F011
:1004D0000101C0F80012002010BD000000640040BF
:1004E000704730B590F82040012C05D0022C03D085
:1004F000416A41F480215DE00468002955D02469F7
:10050000A40754D04FF4D874056804EB01142D5996
:1005100015F00405956005682D594ED0ED0855601D
:1005200005682C5904F00204D4604FF4DA740568AD
:1005300004EB01142D5905F00F05156105682D59BF
:10054000C5F30725956105682C59240C54614FF4B7
:10055000DC72046802EB0112A4581C700468A458F1
:10056000240A5C700468A458240C9C700468A25887
:10057000120EDA704FF4DE72046802EB0112A45816
:100580001C710468A458240A5C710468A458240CE3
:100590009C710468A258120EDA71006881B1016979
:1005A00041F020010161002030BDE468A8E7416A04
:1005B00041F400114162012030BD6D0D1560AFE7BF
:1005C000C16841F02001C160EDE72DE9F05F05460B
:1005D000006800244669D0F804908768D0F80CB011
:1005E000D0F810A0D0F81880F10748D0F90714D03F
:1005F00001218160B80703D5284600F0E2F90CE03C
:10060000780702D54FF4006407E0380702D54FF4AD
:10061000805402E0284600F0D3F9F80516D5296881
:100620004FF480708860B80503D5284600F0CBF9F8
:100630000CE0780502D544F4005407E0380502D5F3
:1006400044F4804402E0284600F0BCF9F80316D5D3
:1006500029684FF480308860B80303D5284600F03D
:10066000B4F90CE0780302D544F4004407E0380301
:1006700002D544F4803402E0284600F0A5F93007A2
:1006800007D55FEACB6004D52968102044F40074D4
:10069000C86070074FF0080707D55FEA0B7004D5F4
:1006A0002868C760284600F059F9B00706D52868C1
:1006B000C068800702D0284600F051F9700607D5BF
:1006C0005FEACA6004D52968102044F48064086198
:1006D000B00607D55FEA0A7004D528680761284686
:1006E00000F03EF9F00606D528680069800702D0C0
:1006F000284600F036F9B00308D55FEAC96005D591
:10070000296810204860284600F02CF9F00307D52E
:100710005FEA097004D528684760284600F056F95A
:10072000300446D55FEA497040D5F00504D55FEA4C
:10073000C87001D044F00104B00504D55FEA8870A8
:1007400001D544F00204700504D55FEA487001D574
:1007500044F00404300529D518F0700F26D008F0B5
:100760007000402815D006DC102809D020280AD0B7
:10077000302816D10AE050280ED0602811D10EE0A2
:1007800044F008040DE044F010040AE044F02004B2
:1007900007E044F0400404E044F0800401E044F445
:1007A00080742868816921F07001816129680420C2
:1007B0004860002C05D0686A204368622846FFF72D
:1007C0008FFEBDE8F09F70B5040003D094F82000C0
:1007D00010B104E0012070BD204600F081F82068CF
:1007E000016821F00201016000F0E6F905460526E6
:1007F00004E000F0E1F9401B0A2811D820684068A5
:100800008007F6D42068016841F00101016000F022
:10081000D3F905460BE000F0CFF9401B0A2806D9B2
:10082000606A40F40030606284F82060D2E720689B
:100830004068C007EFD0207E0128206801683DD0C5
:1008400021F080010160607E01282068016838D0B5
:1008500021F040010160A07E01282068016833D0AA
:1008600021F020010160E07E0128206801682ED07F
:1008700041F010010160207F01282068016829D023
:1008800021F008010160607F01282068016824D000
:1008900021F004010160D4E902010843D4E9041203
:1008A000114308436168491E08432168C86100205C
:1008B0006062012084F82000002070BD41F08001BA
:1008C000C0E741F04001C5E741F02001CAE721F04F
:1008D0001001CFE741F00801D4E741F00401D9E766
:1008E00010B586B0044614216846FFF7A1FC1849EC
:1008F0002068884229D117480021026842F000721E
:100900000260006800F0007005901248103802681C
:1009100042F002020260006800F0020005904FF40D
:10092000407000900220CDE90101032003900920CE
:1009300004906946084800F057F80022012114206D
:1009400000F0A8F9142000F097F906B010BD0000DF
:100950000064004040380240000402407047704785
:10096000704770477047000070B5044690F820004B
:10097000012804D0606A40F40020606218E0022080
:1009800084F820002068016821F00101016000F076
:1009900013F905460EE000BF00F00EF9401B0A28CF
:1009A00008D9606A40F400306062052084F82000B5
:1009B000012070BD20684068C007EDD1606270BD45
:1009C000704770477047704770477047704770476F
:1009D000044910B50A68024202D00860FFF7F7FF29
:1009E00010BD0000143C01402DE9F84F00224FF0EB
:1009F000010803254FF00F0E0B6808FA02F423409C
:100A0000A3426ED14E68012E05D0022E03D0112EC6
:100A100001D0122E12D186684FEA420C05FA0CF76B
:100A2000BE43CF6807FA0CF7374387604668A64392
:100A30000C79C4F30014944034434460C6685700F2
:100A400005FA07FC8C6826EA0C06BC403443C460F7
:100A50004C68022C01D0122C13D1D40800EB840472
:100A6000A346D4F8209054074FEAD46A0EFA0AF647
:100A700029EA06090E6906FA0AF646EA0906CBF8DB
:100A8000206006680C7926EA0C0604F00304BC40DA
:100A9000344304604C68E40065D5364C266846F45F
:100AA00080462660246822F0030604F48044009403
:100AB000314C3444A446D4F808489607370F0EFA50
:100AC00007F6B4432D4EB04201D1002624E02C4E4F
:100AD000B04201D101261FE02A4EB04202D10226C7
:100AE0001AE040E0284EB04201D1032614E0274E20
:100AF000B04201D104260FE0254EB04201D10526B7
:100B00000AE0244EB04201D1062605E0224EB04252
:100B100001D1072600E00826BE402643CCF808682D
:100B20001E4E34684F689C43FF0300D51C4334605D
:100B30001A4C241D26684F689E43BF0300D51E43F0
:100B40002660164E083634684F689C43FF0200D575
:100B50001C433460114E0C3634684F689C43BF020E
:100B600000D51C433460521C102AFFF445AFBDE889
:100B7000F88F00004438024000300140000002407D
:100B80000004024000080240000C02400010024035
:100B90000014024000180240001C0240003C0140CA
:100BA0000069084000D001207047426931EA020222
:100BB00000D10904816170470148806870470000D6
:100BC0002800002002488168027811448160704743
:100BD000280000200B4810B5016841F40071016045
:100BE000016841F480610160016841F48071016035
:100BF000032000F06FF8002000F006F800F024F861
:100C0000002010BD003C024070B50D4D04464FF46D
:100C10007A712878B1FBF0F00A490968B1FBF0F06D
:100C200000F0E4FA48B9102C07D200222146501EE9
:100C300000F030F800206C6070BD012070BD000035
:100C400028000020240000200A4808B5016841F46B
:100C500080410160006800F4804000900548001F5A
:100C6000016841F080510160006800F08050009000
:100C700008BD000044380240002809DB00F01F02D4
:100C8000012191404009800000F1E020C0F80011EE
:100C900070470000F0B40E4B1B680C46C3F30223F0
:100CA000C3F10705042D00D90425191D072901D218
:100CB000002300E0DB1E012606FA05F1491E214053
:100CC00099409E40761E16403143F0BC00F0D4BEE1
:100CD0000CED00E0064900F0070208684FF6FF033C
:100CE000184040EA0220034A1043086070470000A1
:100CF0000CED00E00000FA052DE9F0470E46050076
:100D000065D0DFF81481D8F80000F7B200F00F00CA
:100D1000B04207D288F80070D8F8000000F00F0049
:100D2000B04254D128683D4C810712D5400703D505
:100D3000206840F4E05020602878000703D5206840
:100D400040F4604020602068A96820F0F00008436B
:100D500020602878C0072DD03049686808390128FC
:100D600012D0022813D0032811D00968890700295E
:100D70002DDA216821F0030101432160FFF71CFFF8
:100D8000814641F2883A0EE009688903EFE7096875
:100D90008901ECE7FFF710FFA0EB0901514502D9EB
:100DA0000320BDE8F0872068696800F00C00B0EB14
:100DB000810FEFD1D8F80010404601F00F01B14289
:100DC00007D90770006800F00F00B04201D0012081
:100DD000E7E72878400705D52068E96820F4E05067
:100DE000084320602878000706D52068296920F488
:100DF000604040EAC100206000F018F82168084A0D
:100E0000C1F30311515CC8400649086006480068F8
:100E1000FFF7FAFE0020C4E7003C02400838024019
:100E2000CE1D0008240000202C000020154810B51D
:100E3000006810F00C02144813D01449042A0FD093
:100E4000082A0ED10F4C241F2268236802F03F02AB
:100E50005B0207D52068C0F38810A0FB010106E003
:100E6000084610BD2168C1F38811A1FB00010023D1
:100E7000FFF7A6F92168C1F30141491C4900B0FB05
:100E8000F1F010BD083802400024F40040787D01E4
:100E90002DE9F84F040076D02078DFF838A3CE4D46
:100EA000C00749D0DAF800105046C1F3810101298A
:100EB00008D00068C0F3810002280AD1281D00680C
:100EC000400206D52868800336D560680028E2D045
:100ED00032E06068B0F5803F10D0B0F5A02F2868F0
:100EE00010D020F480302860286820F4802028600A
:100EF0006068A0B1FFF760FE06460CE0286840F489
:100F00008030F4E740F480202860F7E7FFF754FED4
:100F1000801B642873D828688003F7D50CE0FFF79E
:100F20004BFE064605E000BFFFF746FE801B642827
:100F3000F0D828688003F7D42078DFF8A0828007F3
:100F40004FF000093ED5DAF80010504611F00C0FB2
:100F500009D00068C0F3810002280BD19D48001F12
:100F60000068400206D42868800715D5E06801288B
:100F700009D111E0E068B8B10120C8F80000FFF71E
:100F80001BFE064605E020E1FFF716FE801B022847
:100F9000C0D828688007F7D52868216920F0F800B4
:100FA00040EAC10028600DE0C8F80090FFF704FE99
:100FB000064604E0FFF700FE801B02281FD82868C1
:100FC0008007F7D42078000722D5824E84486169D3
:100FD0006C3671B101210160FFF7EEFD074604E0B8
:100FE000FFF7EAFDC01B022809D830688007F7D553
:100FF0000EE0C0F80090FFF7DFFD074605E082E055
:10100000FFF7DAFDC01B02287DD830688007F7D4CF
:101010002078400768D5DFF8BCB100270BF1380B0A
:10102000DBF80000C0000BD4DBF8001041F0805169
:10103000CBF80010DBF80000012700F08050009092
:10104000684E3068C00510D4306840F4807030605D
:10105000FFF7B2FD009005E0FFF7AEFD0099401AE2
:10106000022850D83068C005F6D55A4EA0686836B8
:1010700001280FD00528306810D020F00100306022
:10108000306820F004003060A068B8B1FFF794FD2C
:1010900000900FE0306840F00100F4E740F00400F9
:1010A0003060F7E7FFF788FD0099411A41F2883078
:1010B000814266D830688007F4D50EE0FFF77CFDEA
:1010C000009007E0FFF778FD0099411A41F288305F
:1010D000814256D830688007F4D42FB1DBF8001075
:1010E00021F08051CBF80010A069D0B3DAF80020CD
:1010F0005146C2F38102022A4AD00228484607D04C
:10110000C8F8600000E03CE0FFF756FD04463BE015
:101110004746C8F86000FFF74FFD064605E000BFF0
:10112000FFF74AFD801B02282BD828688001F7D4DE
:10113000D4E907010843A16A2B4A490802EB01419F
:10114000626A41EA8211084394F82C1040EA016176
:101150002048001F016001203866FFF72DFD04467E
:1011600005E034E0FFF728FD001B022809D82868B5
:101170008001F7D52BE000BFFFF71EFD001B022802
:1011800002D90320BDE8F88F28688001F4D41EE05E
:101190000128F7D00868E26900F48001914214D177
:1011A000226A00F03F0191420FD147F6C071626A96
:1011B0000140914209D1A26A00F44031914204D128
:1011C000E16A00F07060884201D00120DAE7002077
:1011D000D8E70000083802400038024000004742CB
:1011E000800E4742007000400000FFFF10B5401E17
:1011F000B0F1807F01D3012010BD4FF0E024606189
:101200000F21601700F038FC0020A061072020614A
:10121000002010BD7047704770B590F83C20012A3F
:1012200032D0012480F83C40022280F83D2003683F
:101230005A689D6822F070060A6832435A60134B60
:1012400002689A4214D0B2F1804F11D0104B9A42EA
:101250000ED0104B9A420BD00F4B9A4208D00F4B36
:101260009A4205D00E4B9A4202D00E4B9A4204D1BC
:10127000496825F080031943916080F83D400021C2
:1012800080F83C10084670BD022070BD000001408F
:101290000004004000080040000C00400004014031
:1012A000004001400018004010B5040003D094F83D
:1012B0003D0010B107E0012010BD002084F83C0083
:1012C000204600F00DF8022084F83D00211D206822
:1012D00000F0F0FA012084F83D00002010BD00006D
:1012E00008B5154A0168154891420ED1016841F0D0
:1012F000020101600068002200F002000090114627
:101300001D20FFF7C7FC1D2010E00D4A914211D1AE
:10131000016841F0040101600068002200F004004F
:10132000009002211E20FFF7B5FC1E20BDE80840FA
:10133000FFF7A2BC08BD0000000400404038024096
:10134000000800400168CA6842F00102CA600068F3
:10135000816801F00701062903D0016841F001010D
:1013600001600020704770B5044690F83C000128E9
:1013700017D0012584F83C50022084F83D002068F5
:10138000826822F0770222F47F4282600868502847
:1013900030D00DDC20284DD005DC98B310283BD18F
:1013A00048E0022070BD302844D0402834D139E0D4
:1013B000602828D0702806D0B0F5805F2CD0B0F51A
:1013C000005F29D10AE0CB68D1E90121206800F053
:1013D000D5FA2068816841F0770109E0CB68D1E94E
:1013E0000121206800F0CAFA2068816841F4804138
:1013F000816011E0CA684968206800F0D1FA502184
:10140000206807E016E0CA684968206800F0D9FA49
:101410006021206800F0BCFA84F83D50002084F878
:101420003C0070BDCA684968206800F0B9FA4021E4
:101430002068EFE7226801461046EBE7704770B579
:101440000446006801694FF00005C943890715D4B7
:10145000C168C943890711D4E91E016101202077C1
:10146000206880698007204602D0FFF7E7FF04E08C
:1014700000F098F8204600F096F82577206801697A
:10148000C943490717D4C168C943490713D46FF04A
:1014900004010161022020772068806910F4407FF8
:1014A000204602D0FFF7CAFF04E000F07BF8204698
:1014B00000F079F8257720680169C943090716D437
:1014C000C168C943090712D46FF008010161042003
:1014D00020772068C0698007204602D0FFF7AEFF62
:1014E00004E000F05FF8204600F05DF82577206802
:1014F0000169C943C90617D4C168C943C90613D4D1
:101500006FF010010161082020772068C06910F495
:10151000407F204602D0FFF791FF04E000F042F840
:10152000204600F040F8257720680169C943C907C3
:1015300008D1C168C943C90704D1891E0161204689
:1015400000F032F820680169C943090609D4C1686E
:10155000C943090605D46FF0800101612046FFF7F9
:1015600059FE20680169C943490609D4C168C943C5
:10157000490605D46FF040010161204600F015F8DE
:1015800020680169C94389060BD4C168C94389062B
:1015900007D46FF0200101612046BDE87040FFF7DD
:1015A0003ABE70BD7047704770477047FEE7000055
:1015B0000B480A494FF4802201600221416000215A
:1015C0008160C0E903129200426101764176817622
:1015D000C17601774177FFF7F6B80000006400405C
:1015E0003400002010B586B0002412480094019405
:1015F0000294039404940E49059401606421C0E9A7
:10160000011440F22621C0E903148461FFF74CFE67
:101610004FF48050009069460648FFF7A4FE0494FA
:1016200004A904480594FFF7F7FD06B010BD0000BB
:10163000000400405C00002010B586B00024124871
:10164000009401940294039404940E49059401605B
:1016500041F69C01C0E9011440F22621C0E90314BF
:101660008461FFF721FE4FF48050009069460648E0
:10167000FFF779FE049404A903480594FFF7CCFD15
:1016800006B010BD000800409C000020FEE7704737
:1016900070477047FFF796BA10B592B03021684690
:1016A000FEF7C6FD14210CA8FEF7C2FD1A48002162
:1016B000026842F080520260006800F08050119091
:1016C0001648026842F4804202600068022400F476
:1016D0008040119001200390102004900094069403
:1016E0000820CDE907104020CDE9090404200B9023
:1016F0006846FFF7CDFB0F20CDE90C0490200E903B
:101700004FF4A0500F90E002109000210CA8FFF7BA
:10171000F3FA12B010BD00004038024000700040E3
:101720001048016841F4700101600F48016841F000
:10173000010101600C4A00210832116002680B4B64
:101740001A400260031D0A4A1A60026822F48022CD
:10175000026005480C300160024958068039086073
:101760007047000088ED00E000380240FFFFF6FE01
:101770001030002470B51448FFF761FE134C144D6F
:10178000206841002869134AC0F380200843206084
:1017900061681269401C02F0010242EA4102626083
:1017A00008D12815FFF714F90B49012008700B49DF
:1017B000042008606068002805D109494FF00070D6
:1017C0000860C010A86170BD5C0000201C000020F3
:1017D0000010024000000240000000201000002025
:1017E000180C02402DE9F0412948FFF728FE294A4C
:1017F000137829480026294C294901272BB1037861
:101800001BB10B780BB90B7823B1127852B1027867
:1018100022B107E006704FF0807002E007704FF4CD
:10182000807020601F4A13781F481BB103780BB1EA
:101830000B7823B1127862B1027822B109E0067008
:101840004FF0007004E00A781AB907704FF4007086
:1018500020600A781548164D4AB12A783AB14FF4FB
:101860000051FFF7A2F92E704FF040700CE009789C
:1018700000290AD02978002907D14FF48051FFF7B9
:1018800094F92F704FF440702060BDE8F0810000A3
:101890009C0000200A0000200C00002018080240D4
:1018A0000B000020090000200D000020000C024069
:1018B0000E000020F0B50268254C264D264E274F1D
:1018C000274B4FF0804CA04209D0604507D0A8427A
:1018D00005D0B04203D0B84201D0984204D122F0E2
:1018E000700E4A6842EA0E02A0421BD0604519D031
:1018F000A84217D0B04215D0B84213D0984211D0A8
:10190000184DA8420ED0184DA8420BD0174DA84232
:1019100008D0174DA84205D0164DA84202D0164D4A
:10192000A84203D122F44075CA682A434D6922F0C7
:1019300080022A4302608A68C2620A688262A04208
:1019400001D0984201D10969016301214161F0BDD3
:10195000000001400004004000080040000C00406E
:1019600000040140004001400044014000480140A3
:1019700000180040001C00400020004010B58468A2
:1019800042EA032224F47F440A432243826010BDCA
:10199000826822F070020A4342F0070181607047BA
:1019A00010B5036A046A24F001040462846924F017
:1019B000F00444EA021423F00A020A43846102623A
:1019C00010BD10B5036A23F0100303628369046A33
:1019D00023F4704343EA023224F0A00343EA0111E6
:1019E0008261016210BDFEE7194808B5016841F047
:1019F00008010160016801F008010091016841F0EF
:101A000004010160016801F004010091016841F0E6
:101A100010010160016801F010010091016841F0BE
:101A20000101016000680C4900F0010000900948C4
:101A300008600B49094808600B480A4901604A06DA
:101A40000A490A600A4AC2600A48C86008BD000024
:101A500030380240FFFFD755000C0240FC7755FF9D
:101A60000008024054DF0F5F0010024000000240F7
:101A700055559555010000640907090E002804DB3F
:101A800000F1E02080F80014704700F00F0000F132
:101A9000E02080F8141D704702E008C8121F08C13A
:101AA000002AFAD170477047002001E001C1121FDF
:101AB000002AFBD17047000008B5FFF78BF8FFF74D
:101AC000EBFD4FF4FA7000F077F9B4484FF00009DD
:101AD0004E46016841F080010160016801F080011B
:101AE0000091016841F002010160006800F002000D
:101AF0000090FFF75DFDFFF79FFDFFF773FDFFF718
:101B000073FFA74801254FF4C0418660C0E9036513
:101B1000183000F128040661A5616561C5610562A0
:101B2000C0E900160146C038FEF754FC4FF0020829
:101B30002661C4E905864FF4D0404FF4FF5784E88E
:101B4000C100E5612146E760A1F1E8002562FEF7EA
:101B500041FC04F1280003210661C4E9051647F69B
:101B6000C05180E8C200C5614FF6E0710562C160F6
:101B70000146A0F58870FEF72DFCA4F1E800FEF701
:101B8000F3FE0221A4F1E800FEF711FCA4F18000AD
:101B9000FFF7D8FBA4F1C000FFF7D4FB4746814E06
:101BA000814CDFF808B2DFF808A24FF0080800BF48
:101BB000C6F81880B76120690528F9D2DFE800F07F
:101BC00003488CB4CC0020780028F1D13069C0F3F0
:101BD0008020607020B14FF40051CBF8001035E048
:101BE0004FF480605346CAF8000020780028DFD107
:101BF00040F2DC5000F0E0F86D480838006810F062
:101C00000100A0701ED04FF40060186020780028FA
:101C1000CED14FF4FA7000F0CFF84FF0806018602A
:101C20004020B0614FF47A7000F0C6F84FF00070B9
:101C3000CBF8000025615D48001F016841F4805128
:101C40000160B5E74FF40040CBF80000042069E0E4
:101C50004FF400613046FEF7A3FF012818D06079E9
:101C600088B14FF04070CAF8000084F80A9084F8F8
:101C70000C90657284F80D904E490A6842F001029A
:101C80000A6084F80590A07928B3A07AD8B147E01B
:101C90004FF400405B46CBF800004FF47A7000F040
:101CA0008BF84FF0004018604FF47A7000F084F821
:101CB0004FF4004018604FF47A7000F07DF84FF058
:101CC00000401860C2E784F809904FF00071CAF82C
:101CD000001084F8069023E0E07888B14FF040705F
:101CE000CAF8000084F8099084F80D90A57284F871
:101CF0000C9030490A6842F001020A6084F80390AF
:101D0000207968B1607A58B94FF04070CAF8000085
:101D100084F80A904FF08072CAF8002084F804908A
:101D20002069401C206143E7E07948B1E57284F8FE
:101D30000E902048026842F00102026084F8079089
:101D4000207A38B184F80B904FF04072CAF8002026
:101D500084F8089025612BE74FF480405B46CBF870
:101D6000000040F6B83000F027F84FF480601860AB
:101D700040F6B83000F020F84FF48000B06140F633
:101D8000B83000F019F84FF00061CAF8001049109F
:101D9000CAF800100420B061DCE7000030380240CF
:101DA000DC0000200010024000000020180C02405F
:101DB000180802401408004000EB40020021C2EB6A
:101DC000C01000E0491CB1EB401FFBD3704700007E
:101DD00000000000000001020304060708090000DB
:101DE000001E00080000002034000000981A0008BF
:101DF000341E00083400002054050000A81A000812
:101E000000000000000000000000000000000000D2
:101E100000000000000000000000000000000000C2
:101E2000FFFFFFFF0024F40001000000100000008D
:041E300000000000AE
:040000050800018965
:00000001FF
